:1070000055C000006EC000006CC000006AC00000E7
:1070100068C0000066C0000064C0000062C00000DC
:1070200060C000005EC00000B4C000005AC0000094
:1070300058C0000056C0000054C0000052C00000FC
:1070400050C0000050C000004CC000004AC000000A
:1070500048C0000046C0000044C0000042C000001C
:1070600040C000003EC000003CC000003AC000002C
:1070700038C0000036C0000034C0000032C000003C
:1070800030C000002EC000002CC000002AC000004C
:1070900028C0000026C0000024C0000022C000005C
:1070A00020C000001EC000001CC0000011241FBE34
:1070B000CFEFDAE0DEBFCDBF11E0A0E0B1E0EAEF54
:1070C000F2E702C005900D92AA30B107D9F711E09E
:1070D000AAE0B1E001C01D92A531B107E1F702D0ED
:1070E0000AC18ECFFFCF1F920F920FB60F921124BD
:1070F0002F938F939F93EF93FF931092850010929D
:10710000840080910E0190910F01009741F001974A
:1071100090930F0180930E01892B09F45D9A809161
:107120000C0190910D01009741F0019790930D0192
:1071300080930C01892B09F4289AE0E0F0E0859116
:107140009491019649F080910A0190910B0101966A
:1071500090930B0180930A01FF91EF919F918F9182
:107160002F910F900FBE0F901F9018958093E900FC
:10717000EBEEF0E0808181608083EDEEF0E0108244
:107180006093EC0040838091EE00881F8827881F61
:1071900008951F920F920FB60F9211242F933F93D1
:1071A0004F935F936F937F938F939F93AF93BF930F
:1071B000EF93FF938091DA0080FF1BC08091D8008D
:1071C00080FF17C08091DA008E7F8093DA00809173
:1071D000D90080FF0BC080E189BD82E189BD09B47F
:1071E00000FEFDCF81E08EBB85D003C019BC1EBA66
:1071F00081D08091E10080FF17C08091E20080FF84
:1072000013C08091E2008E7F8093E2008091E200C3
:1072100080618093E2008091D80080628093D800E2
:1072200019BC85E08EBB66D08091E10084FF2CC044
:107230008091E20084FF28C080E189BD82E189BDA0
:1072400009B400FEFDCF8091D8008F7D8093D800D7
:107250008091E1008F7E8093E1008091E2008F7E3B
:107260008093E2008091E20081608093E20080914F
:107270001401811106C08091E30087FD02C081E006
:1072800001C084E08EBB36D08091E10083FF21C035
:107290008091E20083FF1DC08091E100877F809391
:1072A000E10082E08EBB109214018091E1008E7F9C
:1072B0008093E1008091E2008E7F8093E2008091D4
:1072C000E20080618093E20042E060E080E04EDF17
:1072D00011D0FF91EF91BF91AF919F918F917F91CD
:1072E0006F915F914F913F912F910F900FBE0F9033
:0A72F0001F9018950895F894FFCF41
:0A72FA007777000000000000080094
:040000030000700089
:00000001FF
