:107000005FC0000078C0000076C0000074C00000BF
:1070100072C0000070C000006EC000006CC00000B4
:107020006AC0000068C0000067C4000064C00000BF
:1070300062C0000060C000005EC000005CC00000D4
:107040005AC00000BBC0000056C0000054C0000081
:1070500052C0000050C000004EC000004CC00000F4
:107060004AC0000048C0000046C0000044C0000004
:1070700042C0000040C000003EC000003CC0000014
:107080003AC0000038C0000036C0000034C0000024
:1070900032C0000030C000002EC000002CC0000034
:1070A0002AC0000028C0000026C00000EB3D043EBE
:1070B000AD3E043EAD3E3E3E603EAD3E803E923E25
:1070C00011241FBECFEFDAE0DEBFCDBF11E0A0E09C
:1070D000B1E0E4EEFDE702C005900D92A43AB107DD
:1070E000D9F711E0A4EAB1E001C01D92A63BB107B7
:1070F000E1F7F2D275C684CF84E08093E9008091F5
:10710000E80085FD0DC08091E8008B778093E80052
:107110008091E80082FDF3CF8EB38111F9CF02C0D8
:107120008091F100089593E09093E9009091E80038
:1071300095FF0AC08093F1005D9884E690E09093FB
:10714000A7018093A60108959091E8009E779093FF
:10715000E8009091E80090FDEDCF9EB39111F9CF3A
:10716000089584B7877F84BF88E10FB6F894809331
:107170006000109260000FBE90E880E00FB6F894B7
:1071800090936100809361000FBE81E085BF82E033
:1071900085BF3F9A209A559AE1E6F0E090831082ED
:1071A00047985D9A289A109289009AEF90938800E8
:1071B00080936F0083E08093810086C31F920F92BB
:1071C0000FB60F92112410928500109284000F9038
:1071D0000FBE0F901F90189542E061EC82E009D33A
:1071E00042E161E883E005D342E160E884E001C365
:1071F0008091AE01982F9F77913239F59091AF0130
:10720000903291F0913209F5813AF9F48091E800D9
:10721000877F8093E80067E070E082E091E01DD412
:107220008091E8008B770FC0813279F48091E8007B
:10723000877F8093E80067E070E082E091E06AD4A5
:107240008091E8008E778093E80008956F927F9296
:107250008F929F92AF92BF92CF92DF92EF92FF9266
:107260000F931F93CF93DF9384E08093E900809185
:10727000E80082FF22C2289884E690E09093A5015E
:107280008093A40139DFC82F853451F407B600FC80
:10729000FDCFF999FECF81E180935700E89503C0B7
:1072A000843521F429DF8DE03EDFDEC18C34D9F353
:1072B0008035C9F3843721F484E435DF80E0F4CFEE
:1072C000813611F489E5F0CF813491F415DFC82FB0
:1072D00013DF90E0880F991F2C2F30E0322F2227E8
:1072E000330F822B932BAA2797FDA095BA2F90C11D
:1072F000803711F483E5D8CF833549F4CBE9D1E069
:107300001C2F195F89910FDF1C13FCCFADC186358F
:1073100021F481E308DF80E3C7CF833731F487E8C6
:1073200002DF85E900DF8EE1BFCF8536B9F4E0E00A
:10733000F0E083E095E080935700E89507B600FC05
:10734000FDCF90935700E89507B600FCFDCFE058BD
:10735000FF4FE11520E7F20771F7A5CF823719F447
:10736000E1E0F0E00EC0863419F4E0E0F0E009C09E
:107370008E3419F4E3E0F0E004C0813539F4E2E042
:10738000F0E089E08093570084918ECF823631F40B
:1073900089E5C9DE80E0C7DE80E886CF823419F057
:1073A000873609F0CDC0A8DE082FA6DED82FA4DED0
:1073B000182F8BEB810F823010F08FE375CF2D2FBC
:1073C00030E0302B10926F00C73609F043C081E1E6
:1073D00080935700E895E90100E0BB24B39420971F
:1073E00009F4AAC0C090A801D090A901E090AA0118
:1073F000F090AB011634B9F4E02FF0E0EC29FD2950
:10740000849191DE002369F082E0C80ED11CE11C5A
:10741000F11CC092A801D092A901E092AA01F092B9
:10742000AB010B2515C0D701C601B695A795979559
:107430008795C0D478DEE2E0CE0ED11CE11CF11CB1
:10744000C092A801D092A901E092AA01F092AB01EA
:107450002197C5CF8090A8019090A901A090AA0182
:10746000B090AB01163441F483E0F40180935700EF
:10747000E89507B600FCFDCFE901712C00E0662419
:107480006394209709F44CC0163431F5002301F1C0
:10749000C090A801D090A901E090AA01F090AB01A2
:1074A0002BDE272D30E0382BF601090160925700C2
:1074B000E8951124F2E0CF0ED11CE11CF11CC09222
:1074C000A801D092A901E092AA01F092AB0102C0FA
:1074D00013DE782E062522C00FDE682F8091A801CA
:1074E0009091A901A091AA01B091AB01B695A79581
:1074F0009795879567D48091A8019091A901A09153
:10750000AA01B091AB010296A11DB11D8093A80103
:107510009093A901A093AA01B093AB012197B1CF99
:10752000163441F485E0F40180935700E89507B6DE
:1075300000FCFDCF8DE0F7DD82E080936F0094C00A
:10754000833471F4C091A801D091A901D5DD90E0F8
:1075500021E0FE010C0120935700E8951124A3CEF1
:10756000833601F5C090A801D090A901E090AA014E
:10757000F090AB01C1DDF601E16090E021E00C018B
:1075800020935700E8951124F2E0CF0ED11CE11CA6
:10759000F11CC092A801D092A901E092AA01F09238
:1075A000AB0181CE8D3661F4E091A801F091A90183
:1075B00085E080935700E89507B600FCFDCF73CEB9
:1075C000823551F4E091A801F091A901C591D491BF
:1075D0008D2FA9DD8C2F68CE843419F58DDD682FB1
:1075E0008091A8019091A901A091AA01B091AB014D
:1075F000B695A79597958795E5D38091A801909129
:10760000A901A091AA01B091AB010296A11DB11DE3
:107610008093A8019093A901A093AA01B093AB0114
:1076200042CE8436F1F4C090A801D090A901E09038
:10763000AA01F090AB01D701C601B695A795979521
:107640008795B8D370DD22E0C20ED11CE11CF11C7D
:10765000C092A801D092A901E092AA01F092AB01D8
:1076600003C08B3109F0A9CE83E08093E9009091AB
:10767000E8008091E8008E778093E80095FD11C0C6
:107680008091E80080FD04C08EB38111F9CF15C050
:107690008091E8008E778093E80003C08EB3882342
:1076A00061F08091E80080FFF9CF84E08093E900E9
:1076B0008091E8008B778093E800DF91CF911F9154
:1076C0000F91FF90EF90DF90CF90BF90AF909F9081
:1076D0008F907F906F900895CF936E9A76982598AB
:1076E0002D9A2FEF31EE44E0215030404040E1F739
:1076F00000C00000F999FECF80E090E05BD3C82F76
:1077000081E090E057D3269AC63471F18B3461F151
:107710008DE790E01D9928C02E9A2FEF33EF41E0BE
:10772000215030404040E1F700C000002E982FEF7C
:1077300033EF41E0215030404040E1F700C000000D
:10774000019741F7109201081092000888E10FB6E6
:10775000F89480936000109260000FBE14BE01DDAB
:10776000789474DD10D3FDCF2E9AF89410926F00A8
:1077700010928100109285001092840081E085BFF4
:1077800015BE0C94000080E090E0CF910895292F61
:1077900030E02230310559F02330310569F02130D5
:1077A0003105F9F482E190E029E831E01EC08EE372
:1077B00090E02BE431E019C0882349F0813061F07A
:1077C000823079F488E190E029E031E00EC084E075
:1077D00090E027E431E009C082E290E023E231E06A
:1077E00004C080E090E020E030E0FA0131832083A3
:1077F00008958093E900EBEEF0E080818160808362
:10780000EDEEF0E010826093EC0040838091EE009A
:10781000881F8827881F08958091AE0187FF0FC0B9
:107820008091E80082FD04C08EB38111F9CF10C0B1
:107830008091E8008B770AC08EB3882349F080914D
:10784000E80080FFF9CF8091E8008E778093E80010
:1078500008950F931F93CF93DF9341D048D0C8ED85
:10786000D0E088818F778883888180688883888149
:107870008F7D888319BC1EBA1092AC0100EE10E017
:10788000F80180818B7F808388818160888342E0DA
:1078900060E080E0AEDFE1EEF0E080818E7F80830B
:1078A000E2EEF0E080818160808380818860808367
:1078B000F80180818E7F8083888180618883DF9159
:1078C000CF911F910F910895E7EDF0E080818160E5
:1078D00080838AE482BF81E08093AD01BACFE8ED76
:1078E000F0E080818E7F80831092E20008951092F4
:1078F000DA001092E10008951F920F920FB60F92D6
:1079000011242F933F934F935F936F937F938F93A4
:107910009F93AF93BF93EF93FF938091DA0080FF23
:107920001BC08091D80080FF17C08091DA008E7F45
:107930008093DA008091D90080FF0BC080E189BD7F
:1079400082E189BD09B400FEFDCF81E08EBB1AD271
:1079500003C019BC1EBA16D28091E10080FF17C087
:107960008091E20080FF13C08091E2008E7F8093BF
:10797000E2008091E20080618093E2008091D80073
:1079800080628093D80019BC85E08EBBFBD18091CA
:10799000E10084FF2CC08091E20084FF28C080E1D8
:1079A00089BD82E189BD09B400FEFDCF8091D80078
:1079B0008F7D8093D8008091E1008F7E8093E100DD
:1079C0008091E2008F7E8093E2008091E2008160EE
:1079D0008093E2008091AC01811106C08091E300A8
:1079E00087FD02C081E001C084E08EBBCBD18091D5
:1079F000E10083FF21C08091E20083FF1DC08091E0
:107A0000E100877F8093E10082E08EBB1092AC01A1
:107A10008091E1008E7F8093E1008091E2008E7F73
:107A20008093E2008091E20080618093E20042E076
:107A300060E080E0DEDEA6D1FF91EF91BF91AF91D3
:107A40009F918F917F916F915F914F913F912F9176
:107A50000F900FBE0F901F9018952091B401309198
:107A6000B5012617370748F06115710539F42091E3
:107A7000E8002E772093E80001C0B90140E06115CD
:107A80007105A1F12EB3222309F440C0253009F479
:107A90003FC02091E80023FD37C02091E80022FD7F
:107AA0002DC02091E80020FFEACF4091F300209103
:107AB000F20030E0342BFC01CF016115710559F063
:107AC0002830310540F481918093F10061507109B3
:107AD0002F5F3F4FF1CF41E02830310509F040E002
:107AE0002091E8002E772093E800C9CF4111CACF3A
:107AF00005C08EB3882351F0853051F08091E800A5
:107B000082FFF7CF80E0089581E0089582E0089534
:107B100083E008956115710529F42091E8002B7721
:107B20002093E800FC016115710531F18EB38823C3
:107B300059F1853059F18091E80083FD23C080918F
:107B4000E80082FFF0CF2091F3008091F20090E0F6
:107B5000922B892B31F08091F10081936150710952
:107B600091F78091E8008B778093E800DCCF8EB3AB
:107B7000882351F0853051F08091E80080FFF7CFE5
:107B800080E0089581E0089582E0089583E00895FB
:107B90000F931F93CF93DF9300D0CDB7DEB7EEEAFC
:107BA000F1E088E08E0F9091F10091938E13FBCF5E
:107BB0001FDB8091E80083FFD0C08091AE01E0918F
:107BC000AF014E2F50E04A30510508F0C6C0FA010F
:107BD000EA5AF74CE9C0823809F0BFC08091B2017F
:107BE00087708093E9008091EB001092E9009091FA
:107BF000E800977F9093E80085FB882780F98093C1
:107C0000F1001092F10087C0982F9D7F09F0A5C068
:107C1000823009F0A2C08091B001811129C0809109
:107C2000B201877009F499C08093E9009091EB004C
:107C300090FF1EC09091AF01933021F48091EB0032
:107C4000806214C09091EB0090619093EB0021E072
:107C500030E0A90102C0440F551F8A95E2F7409316
:107C6000EA001092EA008091EB0088608093EB00BC
:107C70001092E9008091E800877F50C081116DC0AB
:107C80001091B0011F770FB7F8948091E800877FBB
:107C90008093E800C1DD8091E80080FFFCCF8091F7
:107CA000E3008078812B8093E30080688093E30079
:107CB000111102C082E001C083E08EBB0FBF4DC036
:107CC0008058823008F049C0AE014F5F5F4F60912D
:107CD000B2018091B0019091B10159DDBC010097D2
:107CE00009F43BC09091E800977F9093E800898168
:107CF0009A81B3DE8091E8008B778093E8002DC0F5
:107D0000803859F58091E800877F8093E800809162
:107D1000AC018093F1008091E8008E778093E800B9
:107D20007BDD1BC0811119C09091B0019230A8F485
:107D30008091E800877F8093E8009093AC016CDD30
:107D40008091AC01811106C08091E30087FD02C0E3
:107D500081E001C084E08EBB3FDA8091E80083FFC0
:107D60000AC08091EB0080628093EB008091E80074
:107D7000877F8093E8000F900F90DF91CF911F9144
:107D80000F9108950895CF938EB3882359F0C09131
:107D9000E900C7701092E9008091E80083FDF8DEE9
:107DA000C093E900CF910895EE0FFF1F0590F49165
:107DB000E02D0994F999FECF92BD81BDF89A9927DB
:107DC00080B50895262FF999FECF1FBA92BD81BDC7
:107DD00020BD0FB6F894FA9AF99A0FBE019608954D
:047DE000F894FFCF45
:107DE400777700000000000008180355006E006B50
:107DF400006E006F0077006E00200020002000203D
:107E04000000002203550053004200200049004FA7
:107E140000200062006F00610072006400200020F6
:107E2400002000200000000403090409023E0002AF
:107E3400010080320904000001020201000524004F
:107E44001001042402040524060001070582030826
:107E540000FF09040100020A0000000705040210E3
:107E64000001070583021000011201100102000045
:107E740008501DA66001000201000143415445520F
:047E8400494E410022
:040000030000700089
:00000001FF
